S014000044656275672F4C616262322D332E733139C7
S315200000000248854600F0E4F9FEE7C04600C001201C
S3152000001080B584B000AF0200FB1D1A700B4A0F2179
S315200000207B1812781A70FA1D7B1812781B781343E6
S31520000030DAB208007B1804210A431A70034A3B18D7
S315200000401B781370C046BD4604B080BD1410024014
S3152000005080B584B000AF0200FB1D1A700D4A0F2137
S315200000607B1812781A70FB1D1B785BB2DB435BB2E0
S315200000707A18127852B213405BB2042213435AB252
S315200000807B181A70034A7B181B781370C046BD462E
S3152000009004B080BD1410024080B582B000AF0200CB
S315200000A0FB1D1A704020FFF7B3FF064AFB1D1B7885
S315200000B0137000F08BF84020FFF7CAFFC046BD46FC
S315200000C002B080BD1510024080B582B000AF02009C
S315200000D0FB1D1A700120FFF7BBFF0220FFF7B8FFB8
S315200000E0FB1D1B781800FFF7D7FFC046BD4602B0A0
S315200000F080BD80B582B000AF78600120FFF788FF11
S315200001000220FFF7A5FF7B68DBB21800FFF7C4FFCC
S31520000110C046BD4602B080BD80B582B000AF40204B
S31520000120FFF776FF00F052F800F050F8064AFB1D64
S3152000013012781A704020FFF78BFFFB1D1B781800E2
S31520000140BD4602B080BDC0461110024090B583B0B6
S3152000015000AF0B4B0B4A1A600120FFF779FF0220F4
S31520000160FFF756FFFC1DFFF7D7FF03002370044B54
S31520000170054A1A60FB1D1B781800BD4603B090BDCA
S3152000018000100240555500005555555590B583B081
S3152000019000AF0B4B0B4A1A600120FFF739FF0220F4
S315200001A0FFF736FFFC1DFFF7B7FF03002370044B54
S315200001B0054A1A60FB1D1B781800BD4603B090BD8A
S315200001C000100240555500005555555580B500AFD5
S315200001D0094B00221A60094B29221A60084B00227B
S315200001E01A60054B05221A70C046034B00221A607E
S315200001F0C046BD4680BDC04610E000E014E000E0E9
S3152000020018E000E080B584B000AF78600023FB6082
S315200002100DE00023BB6004E0FFF7D8FFBB68013385
S31520000220BB60BB68032BF7DDFB680133FB60FB6813
S315200002307A689A42EDD8C046C046BD4604B080BD15
S3152000024080B584B000AF786012E00023FB600AE03E
S31520000250FFF7BCFFFFF7BAFFFFF7B8FFFFF7B6FFC0
S31520000260FB680133FB60FA68FA239B009A42EFDBB6
S315200002707B685A1E7A60002BE7D1C046C046BD4631
S3152000028004B080BD80B500AFC046FFF75FFF030016
S315200002901A0080231340802BF7D00820FFF7B2FFE7
S315200002A03820FFF711FF2720FFF7ACFFC046FFF7E6
S315200002B04DFF03001A0080231340802BF7D008201F
S315200002C0FFF7A0FF0E20FFF7FFFE2720FFF79AFF7C
S315200002D0C046FFF73BFF03001A0080231340802B04
S315200002E0F7D00820FFF78EFF0120FFF7EDFE022052
S315200002F0FFF7A6FFC046FFF729FF03001A00802359
S315200003001340802BF7D00820FFF77CFF0620FFF74D
S31520000310DBFE2720FFF776FFC046BD4680BD80B5B1
S3152000032084B000AF786039607B68013BFB603B6836
S31520000330022B02D1FB684033FB60FB685BB2802254
S31520000340524213435BB2DBB21800FFF7BDFE2B20EF
S31520000350FFF758FFC046BD4604B080BD80B582B0C9
S3152000036000AF0200FB1D1A70C046FFF7EFFE030028
S315200003701A0080231340802BF7D00820FFF742FF76
S31520000380FB1D1B781800FFF7B4FE2B20FFF73AFF62
S31520000390C046BD4602B080BD80B500AF074B1822CF
S315200003A01A60074B074A1A60074B00221A80074B30
S315200003B0044A1A60C046BD4680BDC0463038024059
S315200003C000100240555555550410024008100240B1
S315200003D090B589B000AF7860396014243B191D4A66
S315200003E01168196092889A800C23FB181A4A1168A2
S315200003F0196092889A80FFF7CFFFFFF743FF01210C
S315200004000120FFF78CFF3B19FB6106E0FB695A1CB4
S31520000410FA611B781800FFF7A1FFFB691B78002BF8
S31520000420F4D102210120FFF77AFF0C23FB18FB6190
S3152000043006E0FB695A1CFA611B781800FFF78EFF4D
S31520000440FB691B78002BF4D100231800BD4609B0A8
S3152000045090BDC0465C0400206404002048656C6C96
S311200004606F000000576F726C64000000F3
S70520000000DA
